:1000000000000320D1010000950A00004D0A000005
:100010004D0A00004D0A00004D0A00004D0A000084
:100020004D0A00004D0A00004D0A0000950A00002C
:10003000950A00004D0A0000A1230000A52300003E
:10004000950A0000950A0000950A0000950A000034
:10005000950A0000950A0000950A0000950A000024
:10006000950A0000950A0000950A0000950A000014
:10007000950A0000950A0000950A0000950A000004
:10008000950A0000950A0000950A0000950A0000F4
:10009000950A0000950A0000950A0000950A0000E4
:1000A000950A0000950A0000950A0000950A0000D4
:1000B000950A0000950A0000950A0000950A0000C4
:1000C000950A0000950A0000950A0000950A0000B4
:1000D000950A0000950A0000950A0000950A0000A4
:1000E000950A0000950A0000950A0000950A000094
:1000F000950A0000950A0000950A0000950A000084
:10010000950A0000950A0000950A0000950A000073
:10011000950A00009D140000950A0000950A000051
:10012000950A0000950A0000950A0000950A000053
:10013000950A0000950A0000950A0000950A000043
:10014000950A0000950A0000950A0000950A000033
:10015000950A0000950A0000950A0000950A000023
:10016000950A0000950A0000950A0000950A000013
:10017000950A0000950A0000950A0000950A000003
:10018000950A0000950A0000950A0000950A0000F3
:10019000950A0000950A0000950A0000950A0000E3
:1001A000950A0000950A0000950A0000950A0000D3
:1001B000950A0000950A0000950A0000950A0000C3
:1001C000950A0000950A0000950A0000950A0000B3
:1001D0005C4B4CF2205210B51A804DF628121A8052
:1001E00000BF00BF00F05AFC574B4FF030621A605E
:1001F000564A9A60564ADA60564B4FF470021A60BB
:10020000554B564A1A60564B1A78110703D51A787F
:1002100042F008021A70534B5349AA221A70534AEB
:10022000534B8B4204D252F8040F43F8040BF8E707
:10023000504B514900228B4202D243F8042BFAE77B
:100240004E494F4A002352F8230041F8230001335E
:10025000742BF8D14B4B4C4A802103F8011B93427D
:10026000FBD14A4B454A1A60494B8A221A70A3F5C2
:10027000805324225A70A0221A709A799207FCD5D2
:100280009A79D406FCD4434A937903F00C03082BE3
:10029000FAD1414B60221A7002331A78802AFCD1BD
:1002A0003C4B00221A714E225A719A799006FCD565
:1002B0009979384A4906FBD5384B394919600821E4
:1002C000596020231370937903F00C030C2BFAD19F
:1002D000344B354A1A60354A354C136813F4807331
:1002E00003D123604FF4A8531360324B324A1A6093
:1002F00000225A60072243F8042C304AC3F80C2D20
:1003000062B600F03BFF2368DA0705D52C4800F001
:1003100063FC2C4B2C4A1A602C4B1B785B0609D5CE
:10032000284C294B22689A4204D1254800F054FCFD
:100330000023236002F054F900F0B6FB00F07EFBCE
:10034000FEE700BF0E20054030800440823F0400DD
:100350000100002B88ED00E0002008E0030000858C
:1003600002D0074000E00740100CFF1F9829000052
:100370003007FF1F100CFF1F941DFF1F0002FF1FFF
:100380000000000000E400E064E400E008ED00E0AC
:10039000005006400040064001E007404480044011
:1003A0000000070304800440C010050010D0034083
:1003B00014D0034014E000E07FA9030000002020D7
:1003C000ECF41E5F1CE00340A5C3945A00F0074004
:1003D000FFFFFFFFFFFFFFFFFFFFFFFFFFFFFFFF2D
:1003E000FFFFFFFFFFFFFFFFFFFFFFFFFFFFFFFF1D
:1003F000FFFFFFFFFFFFFFFFFFFFFFFFFFFFFFFF0D
:10040000FFFFFFFFFFFFFFFFFFFFFFFFDEF9FFFF23
:1004100010B5054C237833B9044B13B10448AFF33E
:1004200000800123237010BD100CFF1F000000008E
:100430009C290000084B10B51BB108490848AFF3D0
:1004400000800848036803B910BD074B002BFBD0A0
:10045000BDE81040184700BF00000000140CFF1F4B
:100460009C290000100CFF1F00000000F8B5294C6B
:100470000220E51D01E014F8010F022100F004FE46
:10048000AC42F8D101210B2000F0FEFD01210C202F
:1004900000F0FAFD0121182000F0F6FD01211B20DB
:1004A00000F0F2FD01211C2000F0EEFD01211E20D4
:1004B00000F0EAFD01211D2000F0E6FD01210F20E2
:1004C00000F0E2FD0121122000F0DEFD01211320E9
:1004D00000F0DAFD0021192000F0D6FD00211A20DD
:1004E00000F0D2FD0C490D4A0D4B0E4E40248020E9
:1004F0000C604FF0806708604FF400454FF4803483
:100500004FF480204FF400213760156014601860AC
:100510001960F8BD2027000084F00F4008F00F405C
:1005200048F00F4004F10F401D491E4A4FF0806013
:10053000802330B40860136000BF00BF00BF00BF5D
:1005400000BF00BF00BF00BF00BF00BF00BF00BFB3
:1005500000BF00BF00BF00BF00BF00BF00BF00BFA3
:100560003839114A114C0D685570206000BF00BF2A
:1005700000BF00BF00BF00BF00BF00BF00BF00BF83
:1005800000BF00BF00BF00BF00BF00BF00BF00BF73
:1005900000BF00BF06480968117030BC0360704797
:1005A00008F10F4088F00F40300CFF1F04F10F409E
:1005B00084F00F400D4A0E49135C095C83F001037F
:1005C000135463B90B4B53F83130012283F80021E7
:1005D000094A52F82030013342F820307047054B69
:1005E00053F83130012283F88020F1E72C0CFF1FF3
:1005F0001C27000028270000340CFF1F084A402356
:10060000136000BF00BF00BF00BF00BF00BF00BF3E
:1006100000BF00BF00BF00BF00BF42F8043C7047EE
:1006200088F00F4010B501F06DFD0128FBDD01F0F1
:1006300045FD044601F042FD04EB002080B210BDF0
:1006400030B5042183B00346020E050A040C0DEBFD
:1006500001008DF804308DF805508DF806408DF8B6
:10066000072001F05DFD03B030BD00BF2DE9F84F5C
:10067000FFF7D8FF194D1A4E1A4CDFF878A01A4F21
:10068000DFF86CB0288006F58059A04600F002FD26
:1006900023682A88C01A9042F8D300F0FBFCC8F8FF
:1006A0000000FFF741FF3B78BAF8002026F8022F40
:1006B00083F001034FF480223B704BB10B4B1A6067
:1006C0004E45E3D10A4B4FF480221A60BDE8F88F03
:1006D0004FF48023CBF80030F2E700BF4C1CFF1F23
:1006E000460CFF1F400CFF1F481CFF1F44F00F402B
:1006F00048F00F40300CFF1F70B582B0FFF792FF3B
:100700000E4D0F4E0F4B28804208336013D000244B
:100710001B888DF8043002211B0A01A88DF80530D2
:10072000013401F0FDFC33682A88A4B20233B4EB33
:10073000520F3360ECD302B070BD00BF4A1CFF1FE4
:100740003007FF1F480CFF1F2DE9F04F85B0FFF762
:1007500069FF8046FFF766FF0746FFF763FF8246A3
:10076000FFF760FF2E4C2F4A019000234FF4002129
:10077000A360116078B34FEA4A052B4CC5EB08061D
:1007800099463D44FFF7D0FEC346FFF7CDFE2288D1
:100790005A4535D2BB45F8D923889D4204DDFFF781
:1007A000C3FE2388AB42FADBBB46FFF7BDFE2288BF
:1007B0005A452DD9C345F8D223889E4204DAFFF763
:1007C000B3FE2388B342FADC09F10209019B1FFA48
:1007D00089F94B45D6D8124A144B90684FF4002241
:1007E0001A60FFF72DFF63220023022103A88DF872
:1007F0000C208DF80D3001F093FC05B0BDE8F08FB2
:100800000220FFF7D7FE0AEB0B031FFA83FBC1E7B9
:100810000220FFF7CFFECAEB0B031FFA83FBC9E7E9
:10082000340CFF1F44F00F40300CFF1F48F00F4006
:100830002DE9F04F87B0FFF7F5FE8146FFF7F2FE96
:100840000446FFF7EFFEDFF8E0A0324B324E334DA7
:1008500000274FF40022CAF8087080461A60B9F1E8
:10086000000F0CD031682B680293029B2B4A5B1A55
:10087000A342F8D313680393039B336009E000F0AD
:1008800009FC3368C01AA042F9D300F003FC224BE4
:1008900018600220FFF78EFE2B680493B8F1000F5A
:1008A00019D0049ADAF80830D21B43452CBF4FF018
:1008B000000B4FF0010B632A13D8BBF1000FCED110
:1008C000DAF80800FFF7BCFE154B4FF400221A605F
:1008D00007B0BDE8F08F049BDB1B632BBFD94FF043
:1008E000010B2A680592059F01F00CFC0128E4DD4C
:1008F00001F0E4FB019001F0E1FB019A02EB002022
:1009000080B2084A43281080DAD0BBF1000FA6D18C
:10091000D6E700BF44F00F40400CFF1F501CFF1FE4
:1009200048F00F40440CFF1F340CFF1F08B5FFF7C1
:100930009DFD9FED060A0A2000F000FB80210A20A1
:1009400000F05CF9BDE80840FFF758BE8096184CEF
:1009500080B5364CDFF8DC90DFF8DC80344F82B0B5
:100960004FF40045632601F0CDFB012807DC208809
:1009700050B9C8F8005001F0C5FB0128F7DDFFF7BA
:1009800051FE20800028F4D021283D6034D008D8C2
:100990000C283AD0162835D00B2830D000232380DD
:1009A000E1E7422812D0622803D03728F6D1FFF7BA
:1009B000CBFE4FF0000A022101A88DF804608DF8EB
:1009C00005A001F0ADFBA4F800A0CCE73D60FFF767
:1009D0002FFF4FF0000A022101A88DF804608DF866
:1009E00005A001F09DFB4FF47A7000F077FBC8F88A
:1009F0000050A4F800A0B6E7FFF700FED9E7FFF724
:100A000035FED6E7FFF778FED3E7FFF78DFDB9F89F
:100A100000308DF8043002211B0A01A88DF8053042
:100A200001F07EFB002323809DE700BF440CFF1FE5
:100A300008F00F40300CFF1F04F00F4008B5FFF71F
:100A400075FFFFF785FF01F013FCFAE708B5104CBE
:100A500008E0236859050DD423681A050FD42368CC
:100A6000DB0411D423685803F3D500F017FD236885
:100A70005905F1D500F00EF823681A05EFD500F0FE
:100A800009F82368DB04EDD500F004F8EAE700BFBD
:100A90003480044008B5FFF7D9FF00BF014B102296
:100AA0001A80704700200540704700BF084A13783D
:100AB000802B01D0002070470649074B074808608B
:100AC000002119701378802BFCD00120704700BFE3
:100AD00003E007404480044001E007400000171392
:100AE000094A1378012B01D00020704703F180439D
:100AF00003F5FC23602119701378802BFCD1034B84
:100B0000034A1A600120704703E007404480044014
:100B10000000070310B4114B53F8302092F88042C4
:100B200034B1012379B182F880305DF8044B70470D
:100B300003EBC0035B681A6851B922F002021A6025
:100B40005DF8044B704782F800315DF8044B704744
:100B500042F003021A605DF8044B7047282700003A
:100B60001C4A02EBC00301295B6811D004291BD089
:100B700052F83000002280F8802229B1022920D0CA
:100B8000032922D01A6070474FF480721A607047B0
:100B900052F830004FF4A27280F880121A601A687E
:100BA00022F020021A60704752F830104FF4A272FF
:100BB000012081F880021A601A6842F020021A604F
:100BC000704740F203121A6070474FF481721A6046
:100BD000704700BF2827000030B4054B054D064C78
:100BE000002210211A602A602060196030BC704712
:100BF00014D0034004D0034000D0034038B5A0F126
:100C00004203012B044624D900297ADD994B1B7835
:100C1000012505FA03F28A4202D83F282CD938BDB3
:100C2000C21E012A30D9A0F11D02012A78D90E284E
:100C30005BD9A4F12302032A5CD9A4F11002012A92
:100C400094BF8D4A8D4A126802FB011222FA03F307
:100C500020E0884B1B780B2B0AD90C2B1CBF0C3BBC
:100C60001941422C084657D0BDE8384001F030BC4D
:100C7000C3F10C039940F4E72946FFF74BFF2946DF
:100C8000BDE83840FFF76CBF7D4A126802FB0112D5
:100C900022FA03F3A21E242A00F2E380DFE812F016
:100CA000DA00D300CC00C500BE00B700B000A90038
:100CB000A200E100E100E1009B00E10094008D0052
:100CC000E100E10086007F0078007100E100E100B2
:100CD000E100E100E1006A006300E100E100E10001
:100CE000E1005C0055004E00470044F28412C2400F
:100CF000D2079ED5634A126802FB011222FA03F35F
:100D0000C8E73F288BD80021FFF704FF20460121C8
:100D1000BDE83840FFF724BFBDE8384001F0BABB5A
:100D2000594A126802FB011222FA03F3B2E757494B
:100D3000574A0B604FF45173136038BD5549564AFA
:100D40000B604FF45173136038BD5449544A0B6023
:100D50004FF45173136038BD5249534A0B604FF43E
:100D60005173136038BD5149514A0B604FF45173B0
:100D7000136038BD4F49504A0B604FF451731360F4
:100D800038BD4E494E4A0B6040F24443136038BDB3
:100D90004C494D4A0B6040F24443136038BD4B4907
:100DA0004B4A0B6040F24443136038BD49494A4AFC
:100DB0000B6040F24443136038BD4849484A0B6019
:100DC00040F24463136038BD4649474A0B6040F225
:100DD0004463136038BD4549454A0B6040F24443C3
:100DE000136038BD4349444A0B6040F244431360EA
:100DF00038BD4249424A0B6040F24443136038BD5B
:100E00004049414A0B6040F24443136038BD3F49BA
:100E10003F4A0B6040F24443136038BD3D493E4AAF
:100E20000B6040F24443136038BD3C493C4A0B60C0
:100E300040F24443136038BD3A493B4A0B604FF4DB
:100E40005173136038BD3949394A0B604FF45173FF
:100E5000136038BD3749384A0B6040F24443136091
:100E600038BD3F2C3FF6DBAE7F29D4BF00210121E6
:100E7000204649E73407FF1F08900C4008800340D4
:100E80000890034008900B4008800B4048900B40AE
:100E90002CB0044040900B4028B0044038900B40E8
:100EA00024B0044030900B4020B0044018800B4028
:100EB0004CA0044010800B4048A004401880034020
:100EC00008B004401080034004B004404080034058
:100ED00018C004403880034014C0044018900C40EF
:100EE00004A0044010900C4000A0044018900B4057
:100EF00004C004402880034010B004402080034018
:100F00000CB0044028900B400CC0044020900B40D3
:100F100008C004403080034010C0044048800340B3
:100F20001CC00440189003403490044010900340CB
:100F30003090044010900B4000C00440A0F110011C
:100F4000C9B2012970B45BD9DFED3B7A3B4AB4EEFC
:100F5000E70AF1EE10FA47F6122346BF1A460225B9
:100F60000125DFED376A002322FA03F407EE904AE9
:100F7000F8EEE77A27EEA67AB4EEC70AF1EE10FA99
:100F800007DA0133072BEFD1D20907EE902AF8EEEA
:100F9000E77A87EE807A4FF6FF74C21EF6EE007A8B
:100FA00077EE677AFCEEE77A17EE906AA64228BFE2
:100FB0002646012A344637D917280ED9A0F11D023A
:100FC000012A35D90E281ED92338032820D9012912
:100FD00014D81C4A1C4E1D481DE01D4AC24002F098
:100FE000010282F00106002AE8D01A4A1A481B4979
:100FF000166043EAC50306600C60136070BC70475E
:10100000174A0125ADE744F28412C240D207DBD56E
:10101000144A154E154843EAC5030021116031609A
:101020000460136070BC7047114A124E1248F2E718
:10103000124A134E1348EEE7C0E1E44000879303E1
:101040000000803700900C4004900C4008900C4049
:101050006006F000008003400480034008800340E5
:101060000024F40000900B4004900B4008900B40CB
:1010700000900340049003400890034000800B4020
:1010800004800B4008800B403F2801D8FFF768BD63
:10109000704700BF72B60D490D4B0E4A1B680868B9
:1010A000126862B6520102D5322B88BF01300A495C
:1010B000C3F56A334FF47A7203F27F13A1FB031373
:1010C00002FB00F000EBD310704700BF501CFF1F65
:1010D00018E000E004ED00E0898888882DE9F843F5
:1010E000054672B6214F224B224A1B683C681268A3
:1010F00062B6520102D5322B88BF0134A5B3C3F5C5
:101100006A331D4EDFF86890DFF8688003F27F13C2
:101110004FF47A72A6FB031302FB04F404EBD3141E
:1011200072B6D9F800103A68D8F800E062B6C1F596
:101130006A3303F27F13A6FB03031EF0806FC4EB38
:10114000D3134FF47A7002D0322988BF013200FBEA
:101150000233B3F57A7F04D3013D05D004F57A74E8
:10116000DEE701F085F8DBE7BDE8F883501CFF1FE0
:1011700018E000E004ED00E089888888F8B54E4B5F
:101180004E48DFF85CC14E4C4E49DFF858E14E4EF8
:101190004E4D4F4F4FF000621A604FF080521A6070
:1011A0004FF000521A604FF080421A604FF0004238
:1011B0001A600022026028234EF6FF70CCF800006F
:1011C000CEF8003023600EF5012E0B6033602B60EB
:1011D00006F500263B6005F50025A36207F500270C
:1011E0008B6204F5012401F5012106F6E87605F687
:1011F000E87507F57F6710310EF1100E203433606B
:101200002B60CEF800303B600B602360314CBB613B
:101210008B6109212160A7F5002704F58054203F48
:1012200008343A602060BB60E36047F8041C04F5B2
:10123000FD2407F5FE27043704F2FC7422603860B1
:10124000A360FB6044F8041C083404F6FC74C7F87F
:10125000FC2F2060A4F5E124A4F2DC7433602B6041
:10126000C7F8F81F21681C4841F40071216001682B
:101270001A4C0EF57F4E0EF1E80E07F5883706F58D
:10128000803605F5803541F000710160CEF8002010
:1012900047F6FF710822396033602B60226001F04D
:1012A00089F81920FFF71AFF00F05EFE40F21310D4
:1012B000BDE8F840FFF712BF04E100E004800340FE
:1012C000148003401C800340248003402C80034092
:1012D00034800340008003400480044000900C40B0
:1012E000088003400C800340431E032B14D872B6C1
:1012F0000A4951F8230068B170B4094C058834F8E4
:101300001320466841F82360521B24F8132062B66C
:1013100070BC704762B6704700207047AC1CFF1F5E
:10132000801DFF1F013803280BD872B6074B53F8F6
:10133000203043B100205B680130002BFBD162B646
:101340007047002070471846F9E700BF001DFF1FD7
:1013500030B472B62B4A13781D0706D52A4B196A8A
:10136000002936D0996A002941D053781C0706D548
:10137000254B196C00293ED0996C002939D09378FF
:10138000190705D5204B196E002936D0996E89B101
:10139000D3781B0707D51C4BD3F880207AB3D3F83A
:1013A000882011213AB162B6184B00221A7030BC65
:1013B00000F05EBE0D21154C154D227843F83150DA
:1013C00003EBC1030830013A5860227062B630BCAA
:1013D000704704220D4C0F4D217843F8325003EB37
:1013E000C20308304A1E5860227062B6EFE705213A
:1013F000E1E70921DFE70822ECE70C22EAE7102207
:10140000E8E700BF282900000000FF1F291DFF1F7B
:10141000C800400088004000431E032B1DD81B4A13
:10142000400140F0100030B4104472B6184CE25C39
:10143000032A1BD8DFE802F00212151703220D88D9
:10144000E25410F0080F14BFC823882343EA054371
:1014500008310360416062B630BC70470830022238
:10146000EDE70522EBE708300422E8E7094A52F8E5
:10147000230038B1084A52F82300416042F8231093
:1014800062B6E9E742F82310034AF7E70000FF1FBE
:10149000381DFF1F001DFF1F101DFF1F2DE9F04FFE
:1014A000DFF818B3DFF818A387B044E0AE4F4FEA77
:1014B000930807EBC809013ED9F8042003F008039C
:1014C000F6B2A2F1080003F0FF04002B40F0048103
:1014D00057F838301B0C99B222F8081C002B00F08A
:1014E000F280A24B22F8064C42F8044C53F8262016
:1014F000002A00F06E819E4D55F8263058609D4CB4
:1015000045F8260034F81630194424F8161000F077
:101510008FFD002800F05681974A984B19F0080F6C
:1015200000F1080018BF1346C9F8040047F8383026
:1015300008238BF800309BF80040E4B261071BD50C
:101540008F4B1B78ABB18F490A7802F0FF032AB1A9
:10155000013BDBB20B70002B00F0EF848A490A7864
:1015600002F0FF032AB1013BDBB20B70002B00F04D
:10157000F78004238BF8003004F0080303F0FF0227
:10158000002B00F0D6809AF80030DBB21E098DD116
:101590009C08DFF8D49159F8342009EBC401C2F358
:1015A0008302013A49680C2A7ED8DFE802F0818183
:1015B0007D7D7D7D7D7D477D7D7D07000868734D48
:1015C0004A68734F734E286081B240F281606A4B63
:1015D0006A604FF0010E0022814249F834303A60CF
:1015E000C9F81020C9F8182086F800E05E4C00F217
:1015F000F480B1F5D06F80F07883B1F5817F00F091
:10160000628300F28782802900F0EC82822940F018
:101610001E83A98801F07F01042900F218835E4827
:101620005E4C89000844227062700278930740F192
:10163000798384F800E04FF0020ED8E2544F3A6804
:1016400042B3574B534E5749188834780D78402889
:10165000864645F0020828BF4FF0400E002C84F06B
:1016600001043470CEEB00000CBF8824C82409EBC1
:10167000C80680B285F0010544EA0E447260188005
:1016800049F8384072440D7018B9BEF1400F18BFC8
:1016900000223A603D4B1A88B2F5A06F04D10021B8
:1016A0009A785970404B1A70404A012313703FE7F3
:1016B000364A158842F22100854200F0FF812E4A09
:1016C00049F83420F0E72C4A2C4B19F0080F18BFCA
:1016D000134647F838302BE700F0CAFC344A354946
:1016E00052F82630002B00F0B68158688C5D42F825
:1016F000260003F10802C9F80420032C05D8DFE80E
:1017000004F0120F150204228A551A8819F0080FE6
:101710000CBF8823C82343EA024347F8383007E761
:1017200002228A55F1E703228A55EEE705228A55FF
:10173000EBE7E00700F11A82210600F14982A207D7
:1017400006D51D4A1D4913780220DBB213700870BC
:10175000E30602D5194B10221A7007B0BDE8F08FCE
:1017600000F062FD05E700BF0000FF1FAC1CFF1F7B
:10177000581CFF1F801DFF1FC8004000880040004C
:10178000341DFF1FBD1CFF1F3C1DFF1F201DFF1F21
:10179000541CFF1FBC1CFF1FC02007402C1DFF1F37
:1017A000681CFF1F281DFF1F98200740942007403A
:1017B000001DFF1F381DFF1F8820074080200740A5
:1017C00090200740AB4A47F8380013780133137074
:1017D000AEE643F82600A84D91E642F22100814290
:1017E00000F0358100F2AF81B1F5086F00F01B8287
:1017F000B1F5106F40F02B82226AA049A8780870DA
:10180000120600F14583D9F828209D49130600F1FE
:101810003A83D9F830209A49150600F12F83D9F878
:1018200038209749140600F12483D9F840209449C0
:10183000100600F11983D9F848209149120600F1E9
:101840000E83D9F850208E49130600F10383D9F88E
:1018500058208B49150600F1F882D9F86020884994
:10186000140600F12983D9F868208549100600F193
:101870001E83D9F870208249120600F11383D9F82B
:1018800078207F49130600F10883D9F880207C492D
:10189000150600F11C83D9F888207949140600F157
:1018A0001083D9F890207649100600F1C882D9F843
:1018B00098207349120600F1BC827248724A73493B
:1018C000019073486C4D734C049700230596029564
:1018D000804617460E461D460394386828B1446872
:1018E00000F0C6FB2046002CF9D100233B60029B90
:1018F00030681A46002342F8253028B1446800F0C9
:10190000B7FB2046002CF9D100223260019A98F8EA
:1019100000301146002241F8042B039A0191023B4A
:101920004FF0000122F81510032B09D8DFE813F05F
:101930004B0104004B0104004FF0010388F8003014
:101940000135042D07F1040706F1040608F101082A
:10195000C3D1514C514B2278464D049F059E002126
:1019600029701A70130700F14F8262784C49DFF832
:1019700010810A7010074FF00001C9F83010C9F843
:10198000381000F12B824749A2780A700021C9F86B
:101990005010C9F858101107DFF8E48000F1DC811D
:1019A000E2784149364C0A7000211207C9F87010DC
:1019B000C9F8781000F1B98133780193002183F0E0
:1019C0000102C9F89010C9F89810002002908046D2
:1019D0008446044635490D7845F0020E09EBCE03E6
:1019E0000393019B002B039B5C600CBF8824C824DD
:1019F00044EA080385F0010449F83E3032700C7067
:101A0000DFF87CE02A4BDFF8A480002840F0268134
:101A1000BCF1400F1BD144F0020C09EBCC03029C3B
:101A2000DFF85CE05C60002A40F02E81020442F0A6
:101A300088029DF804304EF83C20044433700D7049
:101A40002346402803D100201A4A3B6010801A4ADE
:101A50000123137028E68B5D032B00F22D8101A278
:101A600052F823F03115000031150000BB1B0000B7
:101A7000C11B0000291DFF1F581CFF1F341DFF1F25
:101A80000000FF1F101DFF1FAC1CFF1F001DFF1FCC
:101A9000381DFF1F801DFF1F28290000C42007409C
:101AA000C8200740CC200740D0200740281DFF1F3A
:101AB000BC1CFF1F681CFF1F94200740928892B92E
:101AC000B14A0D784878157050708D78C878957047
:101AD000D07010680D79157186284D798979557106
:101AE000917100F0A580A949A94E0A78307882F05A
:101AF0000105002842F002020D700CBF8821C821A8
:101B000049F8321009EBC20280F001000021307068
:101B10005160D4E540F20232914240F08D80A988B4
:101B200001F07F01042900F292806A88002A40F0C7
:101B30008E809848CDF804E089000844017841F08F
:101B40000201017041E742F2212081427BD1A98844
:101B5000002940F0E480904B904A9148AC781D6891
:101B60001560CDF804E00A4604702EE78D4B8E48D0
:101B700086491A614FF0020E80F800E0854F0A7026
:101B80008A49196099608A4E8A4D8B4C9A610D2161
:101B90003970FF213170DFF840E229702270874DE3
:101BA000874A8EF800109F27012406F8047C5D60A8
:101BB0000470DA6007B0BDE8F08F00238B55B7E4FE
:101BC00001238B55B4E44FF0000388F80030B7E6EA
:101BD0007049784B80220D2008701A70A2077FF59B
:101BE000B7ADAEE5774C4FF0020E22706270EA8816
:101BF000724580F0A38165490D78402A944645F0EE
:101C0000020E28BF4FF0400C04EB0C0309EBCE0092
:101C10000293012344604FEA0C48CCEB020001938D
:101C20000022C824E4E6684A664C12782270DEE797
:101C3000664A0F21117056E7B1F5A06F07D1012355
:101C400000220193C1E642F221329142F7D0514A7B
:101C50000F231370544A0123137025E540287FF6A3
:101C6000DAAE44F002040EEBC401029E4E60BAB13B
:101C70009DF80410564A19703346403888F80050D1
:101C800040334EF83420DFE69DF804303370020410
:101C9000029B0D7042F0C80203444EF83C20D0E68F
:101CA0009DF804101970029B404A88F80050403893
:101CB00040334EF83420C7E619F0080F0CBF02235A
:101CC00003238B5534E4A98801F07F010429BED891
:101CD0006A88002ABBD12F48CDF804E08900084467
:101CE000017821F0020101706FE63A4A5468002C35
:101CF000ADD06888B5F804E003E00C325468002CDD
:101D0000A5D013888342F8D153887345F5D1000AD2
:101D100003280CBF94F800E0B2F808E067E7CDF8BC
:101D200004E052E64FF0020E61E700F081F900286E
:101D300000F0F18008301D4AC4F88400C4F8802007
:101D400000F076F9002800F0E0800830204AC9F859
:101D50008C00C9F888202FE600F06AF9002800F00E
:101D6000E6800830114AC8F86400C8F8602000F026
:101D70005FF9002800F0D5800830154AC9F86C00DA
:101D8000C9F868200CE600BF881DFF1F281DFF1F33
:101D9000BC1CFF1FC0200740501CFF1F901DFF1FD1
:101DA0004C1DFF1F0000FF1F9420074088004000CB
:101DB0008820074080200740982007406C1CFF1FA8
:101DC000C01CFF1F2C1DFF1F341DFF1FBD1CFF1F4C
:101DD000C80040002C2900008C20074000F028F9A2
:101DE000002800F08C8008305D4AC8F84400C8F82C
:101DF000402000F01DF900287BD00830594AC9F86E
:101E00004C00C9F84820BEE500F012F900286AD05D
:101E10000830534AC9F82400C9F8202000F008F916
:101E200000285AD008304F4AC9F82C00C9F8282099
:101E30009BE5D1F89C00083800F01AF93DE5D1F88F
:101E40009400083800F014F931E5C86D083800F046
:101E50000FF902E5486D083800F00AF9F7E4C86C9C
:101E6000083800F005F9ECE4486C083800F000F997
:101E7000E1E4C86B083800F0FBF8D6E4486B08389A
:101E800000F0F6F8CBE4C86A083800F0F1F8C0E4D6
:101E9000606A083800F0ECF8B5E4C86F083800F064
:101EA000E7F8F2E4486F083800F0E2F8E7E4C86EBB
:101EB000083800F0DDF8DCE4486E083800F0D8F8A7
:101EC000D1E4D1F88C00083800F0D2F8E9E4D1F878
:101ED0008400083800F0CCF8DDE42A78C9F828003E
:101EE00001322A7041E52A78C9F8200001322A70AF
:101EF00094E72A78C9F8480001322A7043E52A7825
:101F0000C8F8400001322A7073E72A78C9F88800BF
:101F100001322A7050E52A78C4F8800001322A7014
:101F20000EE72A78C9F8680001322A7038E52A7865
:101F3000C8F8600001322A7019E700BEBEF1400FF8
:101F4000F44628BF4FF0400C04EB0C03029301232E
:101F5000CCEB0E004FEA0C48002201933AE500BF9B
:101F600088004000C80040002DE9F843244C00F0F0
:101F7000CFFA002204F1A00023461A605A60083309
:101F800083424FF00001F8D11E481F4A0368DFF872
:101F900090E01E4F1E4D1F4EDFF88880DFF888C08E
:101FA000DFF8889043F48023036013681A4843F0F5
:101FB00040731360C4F307238EF80030C4F3074363
:101FC0003B70240EFF2302F5C9222C7002F58472A7
:101FD00088F80030114D8CF800303370012389F8F7
:101FE000003070268EF864104FF40014102107F8AA
:101FF0002C3C2E70046011700EF1640EBDE8F88365
:102000000000FF1F3480044000D80040B02007408B
:10201000B42007401020074004E100E035E400E070
:102020009C200740802007408820074094200740DC
:1020300072B60D480268B2FA82F30B2B10DC4FF037
:102040000041D94022EA0102026062B6074803EB70
:10205000C303DB00C2180021C15010465160704715
:1020600062B60020704700BF3807FF1FD003FF1F74
:102070000D4B0E4AC31AA2FB03231B090B2B0CD8D2
:102080000B4A127852B972B60A484FF00041026802
:1020900021FA03F31A43026062B67047064A1278C7
:1020A000002AF0D0FFF754B9D003FF1F398EE33870
:1020B000291DFF1F3807FF1F341DFF1F38B50F4DA7
:1020C000286878B143880288C118013393420C7A9A
:1020D00002D24380204638BDFFF7CAFF00232046C6
:1020E0002B6038BD064B1B782BB10320FFF7FCF8A3
:1020F00028600028E6D14FF0FF3038BD481DFF1F93
:10210000341DFF1F044B054A1B6890881BB11A88B9
:102110005B88D31A18447047481DFF1F801DFF1F9E
:102120002DE9F04FDFF8F89083B0012289F8002004
:10213000019169B3DFF8EC80354F019E8346D8F8F2
:102140000000B0B3334D4488C4F14001B14228BF10
:10215000314604EB010E00221FFA8EFE2A70761A19
:10216000A0F802E000F1080251B1013C22445944B8
:102170001BF8014B02F8014F8B45F9D1B0F802E092
:10218000BEF13F0F0BD8244A05211170002ED6D185
:102190000198002389F8003003B0BDE8F08F402299
:1021A000028001460420FFF737F90022C8F800201A
:1021B000E9E73A7822B3194C164D4FF0010A07E0CF
:1021C000013C16D02A78A2B900F052F83A78BAB198
:1021D0000420FFF7A7F80728F2D889F800A0FFF736
:1021E00027FFC8F800000028ADD10D4B013C187046
:1021F000E8D101234FF0FF302B7003B0BDE8F08F22
:1022000000234FF0FF3089F8003003B0BDE8F08FB5
:10221000341DFF1F441DFF1F3C1DFF1F81B5010022
:102220003D1DFF1F401DFF1F38B50E4B1B7873B9B6
:102230000D4C216861B103F0FF054B880B80042031
:10224000FFF7EAF8256038BD084B01221A7038BD47
:10225000FFF7EEFE0028F7D00146BDE83840042025
:10226000FFF7DAB83D1DFF1F401DFF1F3C1DFF1F7C
:102270002DE9F843314E337893B1314F3A787AB93A
:102280000122D9073A7036D49A0719D400225B0785
:102290003A7005D52B4B1A6812B1EFF305820AB1DB
:1022A000BDE8F883EFF3108172B6186818B1264CB8
:1022B0002278002A2ED00029F2D162B6BDE8F88338
:1022C000DFF8908098F80020002ADFD0DFF88890AF
:1022D000002405E0013498F80030E4B2A34212D99A
:1022E00059F824502B6828461B6998470028F1D0DC
:1022F0002B699847EEE7FFF705FFC8B9134B1B782A
:102300001BB93378C0E73378C0E7337803F0FE03B6
:102310003370B9E745691D60012323705DB1AA617F
:1023200001B962B600254577836898472570B7E7FD
:1023300000F0ECF8E2E7064B1D60F1E73C07FF1FF9
:102340004D1DFF1F5C1DFF1F601DFF1F3F07FF1F6F
:10235000581DFF1F7C1DFF1F641DFF1F70B5EFF38D
:10236000108272B60C4C206880B10C4E0025436977
:10237000236073B19D6102B962B64577836898475F
:10238000EFF3108272B620680028F0D102B962B66D
:1023900070BD3360EFE700BF501DFF1F541DFF1FCE
:1023A000FFF7DCBF024A136801331360704700BFB8
:1023B000501CFF1F30B42948294A2A4B2A4D60245B
:1023C000E121047011701B78284C082B30D00A2BA7
:1023D0002748284937D00C2B0CBF35225D22122309
:1023E0002A60236002600B60234B24491B78244A37
:1023F000BBB101230B601360224B23491B78234A96
:10240000012B26D9042B0FD9082B1ED9102B94BFD2
:10241000862387230B6013601D4B01221A7030BC8A
:1024200070470B601360E7E784230B601360F3E7EA
:1024300000F58E200F490830212213232A602360E3
:1024400002600B60D0E73922F7E785230B60136049
:10245000E2E780230B601360DEE700BF0040074027
:10246000014007403D07FF1F08B003400CB0034088
:1024700008B00B400CB00B407E1DFF1F20B0034086
:1024800020B00B403E07FF1F24B0034024B00B4098
:102490007D1DFF1F0A4A0B49136843F480531360E4
:1024A0000B7843B9084BC0221A70084B80F30C001C
:1024B00000B218807047044B80221A70F5E700BF05
:1024C0002C8004407E1DFF1F21C00C4000C00C402A
:1024D0000A4A0B49136843F4005313600B7843B95D
:1024E000084BC0221A70084B80F30C0000B2188011
:1024F0007047044B80221A70F5E700BF2C8004401F
:102500007E1DFF1F21D00C4000D00C40704700BF43
:1025100010B584B072B6FEF7C9FA184A184B1949BB
:102520001160702280211A701A46197013781B06E8
:10253000FCD5154B1C68FEF7D3FA62B6134B9C42D0
:102540009CBF04EB840464002046114C01A90A22BC
:1025500000F020F801A92046002311F8012B0133D7
:102560003AB10A2B20F8022FF7D11623237004B0BA
:1025700010BD5B00DBB2237004B010BD040002404C
:1025800000000240000007410C0002407F969800C6
:10259000CC07FF1FF0B44D1E2E46002400E001348E
:1025A000B0FBF2F302FB1300092800F130078ABFE9
:1025B0003730F8B2C0B206F8010F1846002BEED142
:1025C0000A1953704CB1107815F8016F2870013357
:1025D000E01A834202F80169F5DB0846F0BC704757
:1025E00070B50F4E0F4D761BB61018BF002405D0E6
:1025F000013455F8043B9847A642F9D10A4E0B4DD9
:10260000761B00F0BFF9B61018BF002406D00134C5
:1026100055F8043B9847A642F9D170BD70BD00BF84
:1026200090290000902900009829000090290000BE
:10263000024B13B1024800F005B8704700000000DB
:1026400051260000002301461A46184600F014B82F
:1026500038B5074D074C2C1BA41005D0013C55F88C
:10266000043D9847002CF9D1BDE8384000F094B9FA
:1026700000000000000000002DE9F047254C25680F
:10268000D5F848410646884692469946C4B36068E4
:102690001F2817DC431C76B104EB80050122C5F826
:1026A00088A0D4F8881182401143022EC4F8881102
:1026B000C5F808911ED00230636044F820800020E5
:1026C000BDE8F087144B03B34FF4C870AFF300803C
:1026D0000446D0B1D5F84831002780E88800C5F815
:1026E000484138460123C4F88871C4F88C71002E23
:1026F000E1D0D1E7D4F88C110A43C4F88C21DAE791
:1027000005F5A674C5F84841C1E74FF0FF30BDE8B4
:10271000F08700BF80290000000000000F1213FFA7
:10272000020E0708061415054008FE4340A00440A9
:102730004408FE4344A004400018FE4300C0044087
:102740003000FE43309004403400FE433490044097
:102750001C18FE431CC004401018FE4310C0044067
:102760000818FE4308C004400C18FE430CC0044087
:102770000C10FE430CB004401010FE4310B0044097
:102780001810FE4318B004401C10FE431CB0044057
:102790001410FE4314B004400418FE4304C0044067
:1027A0000010FE4300B004400008FE4300A00440B7
:1027B0000408FE4304A004400C08FE430CA004409F
:1027C0000808FE4308A004401418FE4314C0044047
:1027D0001818FE4318C004400410FE4304B004401F
:1027E0000810FE4308B004406820FE4368D004404F
:1027F0001400FE43149004403800FE433890044017
:102800003C00FE433C9004404000FE4340900440A6
:102810004808FE4348A004404C08FE434CA0044036
:102820002808FE4328A004402C08FE432CA00440A6
:102830006020FE4360D004406420FE4364D0044026
:102840002010FE4320B004402410FE4324B0044076
:102850002810FE4328B004402C10FE432CB0044046
:102860004400FE43449004407000FE4370900440D6
:102870007400FE43749004406800FE436890044076
:102880005008FE4350A004405808FE4358A004409E
:102890005C08FE435CA004405408FE4354A004407E
:1028A0002018FE4320C004402418FE4324C00440E6
:1028B0001008FE4310A004401408FE4314A0044076
:1028C0003818FE4338C004403418FE4334C0044076
:1028D0003018FE4330C004403C18FE433CC0044066
:1028E0002C18FE432CC004402820FE4328D004406E
:1028F0002C20FE432CD004400020FE4300D0044096
:102900000420FE4304D004400820FE4308D00440C5
:102910000C20FE430CD004401020FE4310D0044095
:102920001420FE4314D004400015191500010000C6
:102930004007FF1F12000000000200006C07FF1F8D
:102940004300000000030000C807FF1F0000000054
:10295000010309045407FF1F0000000002030904DB
:10296000B007FF1F0000000003030904CC07FF1F8E
:102970000000000000000000000000000000000057
:10298000E807FF1FF8B500BFF8BC08BC9E467047BB
:082990003126000035040000AF
:04299800F8B500BFCF
:10299C00480CFF1F08000000FFFFFFFF010A0401A5
:1029AC001201100102000040C016830477020102DC
:1029BC000301000018035400650065006E007300ED
:1029CC0079006400750069006E006F000902430015
:1029DC00020100C0320904000001020201000524BA
:1029EC00001001052401010104240206052406003F
:1029FC00010705820310004009040100020A0000CF
:102A0C000007050302400000070584024000000097
:102A1C00160355005300420020005300650072005D
:102A2C00690061006C000000040309040C03000041
:102A3C00000000000000000000000000000000008A
:102A4C00000000000000000000000000D40AFF1F7E
:102A5C003C0BFF1FA40BFF1F000000000000000038
:102A6C00000000000000000000000000000000005A
:102A7C00000000000000000000000000000000004A
:102A8C00000000000000000000000000000000003A
:102A9C00000000000000000000000000000000002A
:102AAC00000000000000000000000000000000001A
:102ABC00000000000000000000000000000000000A
:102ACC0000000000000000000000000000000000FA
:102ADC0000000000000000000000000000000000EA
:102AEC0000000000000000000000000000000000DA
:102AFC0001000000000000000E33CDAB34126DE677
:102B0C00ECDE05000B0000000000000000000000DF
:102B1C0000000000000000000000000000000000A9
:102B2C000000000000000000000000000000000099
:102B3C000000000000000000000000000000000089
:102B4C000000000000000000000000000000000079
:00000001FF
